{
  "_format": "hh-sol-artifact-1",
  "contractName": "Cards",
  "sourceName": "contracts/Cards.sol",
  "abi": [
    {
      "inputs": [
        {
          "internalType": "string",
          "name": "_baseTokenURI",
          "type": "string"
        }
      ],
      "stateMutability": "nonpayable",
      "type": "constructor"
    },
    {
      "inputs": [],
      "name": "ApprovalCallerNotOwnerNorApproved",
      "type": "error"
    },
    {
      "inputs": [],
      "name": "ApprovalQueryForNonexistentToken",
      "type": "error"
    },
    {
      "inputs": [],
      "name": "ApprovalToCurrentOwner",
      "type": "error"
    },
    {
      "inputs": [],
      "name": "ApproveToCaller",
      "type": "error"
    },
    {
      "inputs": [],
      "name": "BalanceQueryForZeroAddress",
      "type": "error"
    },
    {
      "inputs": [],
      "name": "MintToZeroAddress",
      "type": "error"
    },
    {
      "inputs": [],
      "name": "MintZeroQuantity",
      "type": "error"
    },
    {
      "inputs": [],
      "name": "OwnerQueryForNonexistentToken",
      "type": "error"
    },
    {
      "inputs": [],
      "name": "TransferCallerNotOwnerNorApproved",
      "type": "error"
    },
    {
      "inputs": [],
      "name": "TransferFromIncorrectOwner",
      "type": "error"
    },
    {
      "inputs": [],
      "name": "TransferToNonERC721ReceiverImplementer",
      "type": "error"
    },
    {
      "inputs": [],
      "name": "TransferToZeroAddress",
      "type": "error"
    },
    {
      "inputs": [],
      "name": "URIQueryForNonexistentToken",
      "type": "error"
    },
    {
      "anonymous": false,
      "inputs": [
        {
          "indexed": true,
          "internalType": "address",
          "name": "owner",
          "type": "address"
        },
        {
          "indexed": true,
          "internalType": "address",
          "name": "approved",
          "type": "address"
        },
        {
          "indexed": true,
          "internalType": "uint256",
          "name": "tokenId",
          "type": "uint256"
        }
      ],
      "name": "Approval",
      "type": "event"
    },
    {
      "anonymous": false,
      "inputs": [
        {
          "indexed": true,
          "internalType": "address",
          "name": "owner",
          "type": "address"
        },
        {
          "indexed": true,
          "internalType": "address",
          "name": "operator",
          "type": "address"
        },
        {
          "indexed": false,
          "internalType": "bool",
          "name": "approved",
          "type": "bool"
        }
      ],
      "name": "ApprovalForAll",
      "type": "event"
    },
    {
      "anonymous": false,
      "inputs": [
        {
          "indexed": true,
          "internalType": "address",
          "name": "previousOwner",
          "type": "address"
        },
        {
          "indexed": true,
          "internalType": "address",
          "name": "newOwner",
          "type": "address"
        }
      ],
      "name": "OwnershipTransferred",
      "type": "event"
    },
    {
      "anonymous": false,
      "inputs": [
        {
          "indexed": true,
          "internalType": "address",
          "name": "from",
          "type": "address"
        },
        {
          "indexed": true,
          "internalType": "address",
          "name": "to",
          "type": "address"
        },
        {
          "indexed": true,
          "internalType": "uint256",
          "name": "tokenId",
          "type": "uint256"
        }
      ],
      "name": "Transfer",
      "type": "event"
    },
    {
      "inputs": [
        {
          "internalType": "address",
          "name": "to",
          "type": "address"
        },
        {
          "internalType": "uint256",
          "name": "tokenId",
          "type": "uint256"
        }
      ],
      "name": "approve",
      "outputs": [],
      "stateMutability": "nonpayable",
      "type": "function"
    },
    {
      "inputs": [
        {
          "internalType": "address",
          "name": "owner",
          "type": "address"
        }
      ],
      "name": "balanceOf",
      "outputs": [
        {
          "internalType": "uint256",
          "name": "",
          "type": "uint256"
        }
      ],
      "stateMutability": "view",
      "type": "function"
    },
    {
      "inputs": [
        {
          "internalType": "uint256",
          "name": "tokenId",
          "type": "uint256"
        }
      ],
      "name": "getApproved",
      "outputs": [
        {
          "internalType": "address",
          "name": "",
          "type": "address"
        }
      ],
      "stateMutability": "view",
      "type": "function"
    },
    {
      "inputs": [],
      "name": "getOnlyWhitelisted",
      "outputs": [
        {
          "internalType": "bool",
          "name": "",
          "type": "bool"
        }
      ],
      "stateMutability": "view",
      "type": "function"
    },
    {
      "inputs": [
        {
          "internalType": "address",
          "name": "owner",
          "type": "address"
        },
        {
          "internalType": "address",
          "name": "operator",
          "type": "address"
        }
      ],
      "name": "isApprovedForAll",
      "outputs": [
        {
          "internalType": "bool",
          "name": "",
          "type": "bool"
        }
      ],
      "stateMutability": "view",
      "type": "function"
    },
    {
      "inputs": [],
      "name": "maxPerAddressMint",
      "outputs": [
        {
          "internalType": "uint256",
          "name": "",
          "type": "uint256"
        }
      ],
      "stateMutability": "view",
      "type": "function"
    },
    {
      "inputs": [],
      "name": "maxSupply",
      "outputs": [
        {
          "internalType": "uint256",
          "name": "",
          "type": "uint256"
        }
      ],
      "stateMutability": "view",
      "type": "function"
    },
    {
      "inputs": [],
      "name": "merkleRoot",
      "outputs": [
        {
          "internalType": "bytes32",
          "name": "",
          "type": "bytes32"
        }
      ],
      "stateMutability": "view",
      "type": "function"
    },
    {
      "inputs": [
        {
          "internalType": "uint256",
          "name": "quantity",
          "type": "uint256"
        },
        {
          "internalType": "bytes32[]",
          "name": "_merkleProof",
          "type": "bytes32[]"
        }
      ],
      "name": "mint",
      "outputs": [],
      "stateMutability": "payable",
      "type": "function"
    },
    {
      "inputs": [],
      "name": "name",
      "outputs": [
        {
          "internalType": "string",
          "name": "",
          "type": "string"
        }
      ],
      "stateMutability": "view",
      "type": "function"
    },
    {
      "inputs": [],
      "name": "onlyWhitelisted",
      "outputs": [
        {
          "internalType": "bool",
          "name": "",
          "type": "bool"
        }
      ],
      "stateMutability": "view",
      "type": "function"
    },
    {
      "inputs": [],
      "name": "owner",
      "outputs": [
        {
          "internalType": "address",
          "name": "",
          "type": "address"
        }
      ],
      "stateMutability": "view",
      "type": "function"
    },
    {
      "inputs": [
        {
          "internalType": "uint256",
          "name": "tokenId",
          "type": "uint256"
        }
      ],
      "name": "ownerOf",
      "outputs": [
        {
          "internalType": "address",
          "name": "",
          "type": "address"
        }
      ],
      "stateMutability": "view",
      "type": "function"
    },
    {
      "inputs": [],
      "name": "paused",
      "outputs": [
        {
          "internalType": "bool",
          "name": "",
          "type": "bool"
        }
      ],
      "stateMutability": "view",
      "type": "function"
    },
    {
      "inputs": [],
      "name": "publicCost",
      "outputs": [
        {
          "internalType": "uint256",
          "name": "",
          "type": "uint256"
        }
      ],
      "stateMutability": "view",
      "type": "function"
    },
    {
      "inputs": [],
      "name": "renounceOwnership",
      "outputs": [],
      "stateMutability": "nonpayable",
      "type": "function"
    },
    {
      "inputs": [],
      "name": "revealed",
      "outputs": [
        {
          "internalType": "bool",
          "name": "",
          "type": "bool"
        }
      ],
      "stateMutability": "view",
      "type": "function"
    },
    {
      "inputs": [
        {
          "internalType": "address",
          "name": "from",
          "type": "address"
        },
        {
          "internalType": "address",
          "name": "to",
          "type": "address"
        },
        {
          "internalType": "uint256",
          "name": "tokenId",
          "type": "uint256"
        }
      ],
      "name": "safeTransferFrom",
      "outputs": [],
      "stateMutability": "nonpayable",
      "type": "function"
    },
    {
      "inputs": [
        {
          "internalType": "address",
          "name": "from",
          "type": "address"
        },
        {
          "internalType": "address",
          "name": "to",
          "type": "address"
        },
        {
          "internalType": "uint256",
          "name": "tokenId",
          "type": "uint256"
        },
        {
          "internalType": "bytes",
          "name": "_data",
          "type": "bytes"
        }
      ],
      "name": "safeTransferFrom",
      "outputs": [],
      "stateMutability": "nonpayable",
      "type": "function"
    },
    {
      "inputs": [
        {
          "internalType": "address",
          "name": "operator",
          "type": "address"
        },
        {
          "internalType": "bool",
          "name": "approved",
          "type": "bool"
        }
      ],
      "name": "setApprovalForAll",
      "outputs": [],
      "stateMutability": "nonpayable",
      "type": "function"
    },
    {
      "inputs": [
        {
          "internalType": "string",
          "name": "_baseTokenURI",
          "type": "string"
        }
      ],
      "name": "setBaseURI",
      "outputs": [],
      "stateMutability": "nonpayable",
      "type": "function"
    },
    {
      "inputs": [
        {
          "internalType": "bool",
          "name": "_state",
          "type": "bool"
        }
      ],
      "name": "setOnlyWhitelisted",
      "outputs": [],
      "stateMutability": "nonpayable",
      "type": "function"
    },
    {
      "inputs": [
        {
          "internalType": "bool",
          "name": "_state",
          "type": "bool"
        }
      ],
      "name": "setPauseState",
      "outputs": [],
      "stateMutability": "nonpayable",
      "type": "function"
    },
    {
      "inputs": [
        {
          "internalType": "string",
          "name": "_newURI",
          "type": "string"
        }
      ],
      "name": "setRevealState",
      "outputs": [],
      "stateMutability": "nonpayable",
      "type": "function"
    },
    {
      "inputs": [
        {
          "internalType": "bytes4",
          "name": "interfaceId",
          "type": "bytes4"
        }
      ],
      "name": "supportsInterface",
      "outputs": [
        {
          "internalType": "bool",
          "name": "",
          "type": "bool"
        }
      ],
      "stateMutability": "view",
      "type": "function"
    },
    {
      "inputs": [],
      "name": "symbol",
      "outputs": [
        {
          "internalType": "string",
          "name": "",
          "type": "string"
        }
      ],
      "stateMutability": "view",
      "type": "function"
    },
    {
      "inputs": [
        {
          "internalType": "uint256",
          "name": "tokenId",
          "type": "uint256"
        }
      ],
      "name": "tokenURI",
      "outputs": [
        {
          "internalType": "string",
          "name": "",
          "type": "string"
        }
      ],
      "stateMutability": "view",
      "type": "function"
    },
    {
      "inputs": [],
      "name": "totalSupply",
      "outputs": [
        {
          "internalType": "uint256",
          "name": "",
          "type": "uint256"
        }
      ],
      "stateMutability": "view",
      "type": "function"
    },
    {
      "inputs": [
        {
          "internalType": "address",
          "name": "from",
          "type": "address"
        },
        {
          "internalType": "address",
          "name": "to",
          "type": "address"
        },
        {
          "internalType": "uint256",
          "name": "tokenId",
          "type": "uint256"
        }
      ],
      "name": "transferFrom",
      "outputs": [],
      "stateMutability": "nonpayable",
      "type": "function"
    },
    {
      "inputs": [
        {
          "internalType": "address",
          "name": "newOwner",
          "type": "address"
        }
      ],
      "name": "transferOwnership",
      "outputs": [],
      "stateMutability": "nonpayable",
      "type": "function"
    },
    {
      "inputs": [],
      "name": "whiteListCost",
      "outputs": [
        {
          "internalType": "uint256",
          "name": "",
          "type": "uint256"
        }
      ],
      "stateMutability": "view",
      "type": "function"
    },
    {
      "inputs": [],
      "name": "withdraw",
      "outputs": [],
      "stateMutability": "nonpayable",
      "type": "function"
    }
  ],
  "bytecode": "0x60806040526000600860146101000a81548160ff0219169083151502179055506000600860156101000a81548160ff0219169083151502179055506001600860166101000a81548160ff02191690831515021790555060d06009553480156200006757600080fd5b50604051620044393803806200443983398181016040528101906200008d919062000455565b6040518060400160405280600581526020017f43617264730000000000000000000000000000000000000000000000000000008152506040518060400160405280600481526020017f434152440000000000000000000000000000000000000000000000000000000081525081600290805190602001906200011192919062000327565b5080600390805190602001906200012a92919062000327565b506200013b6200017b60201b60201c565b600081905550505062000163620001576200018460201b60201c565b6200018c60201b60201c565b62000174816200025260201b60201c565b50620006ad565b60006001905090565b600033905090565b6000600860009054906101000a900473ffffffffffffffffffffffffffffffffffffffff16905081600860006101000a81548173ffffffffffffffffffffffffffffffffffffffff021916908373ffffffffffffffffffffffffffffffffffffffff1602179055508173ffffffffffffffffffffffffffffffffffffffff168173ffffffffffffffffffffffffffffffffffffffff167f8be0079c531659141344cd1fd0a4f28419497f9722a3daafe3b4186f6b6457e060405160405180910390a35050565b620002626200018460201b60201c565b73ffffffffffffffffffffffffffffffffffffffff1662000288620002fd60201b60201c565b73ffffffffffffffffffffffffffffffffffffffff1614620002e1576040517f08c379a0000000000000000000000000000000000000000000000000000000008152600401620002d890620004cd565b60405180910390fd5b80600a9080519060200190620002f992919062000327565b5050565b6000600860009054906101000a900473ffffffffffffffffffffffffffffffffffffffff16905090565b828054620003359062000595565b90600052602060002090601f016020900481019282620003595760008555620003a5565b82601f106200037457805160ff1916838001178555620003a5565b82800160010185558215620003a5579182015b82811115620003a457825182559160200191906001019062000387565b5b509050620003b49190620003b8565b5090565b5b80821115620003d3576000816000905550600101620003b9565b5090565b6000620003ee620003e88462000518565b620004ef565b9050828152602081018484840111156200040d576200040c62000664565b5b6200041a8482856200055f565b509392505050565b600082601f8301126200043a57620004396200065f565b5b81516200044c848260208601620003d7565b91505092915050565b6000602082840312156200046e576200046d6200066e565b5b600082015167ffffffffffffffff8111156200048f576200048e62000669565b5b6200049d8482850162000422565b91505092915050565b6000620004b56020836200054e565b9150620004c28262000684565b602082019050919050565b60006020820190508181036000830152620004e881620004a6565b9050919050565b6000620004fb6200050e565b9050620005098282620005cb565b919050565b6000604051905090565b600067ffffffffffffffff82111562000536576200053562000630565b5b620005418262000673565b9050602081019050919050565b600082825260208201905092915050565b60005b838110156200057f57808201518184015260208101905062000562565b838111156200058f576000848401525b50505050565b60006002820490506001821680620005ae57607f821691505b60208210811415620005c557620005c462000601565b5b50919050565b620005d68262000673565b810181811067ffffffffffffffff82111715620005f857620005f762000630565b5b80604052505050565b7f4e487b7100000000000000000000000000000000000000000000000000000000600052602260045260246000fd5b7f4e487b7100000000000000000000000000000000000000000000000000000000600052604160045260246000fd5b600080fd5b600080fd5b600080fd5b600080fd5b6000601f19601f8301169050919050565b7f4f776e61626c653a2063616c6c6572206973206e6f7420746865206f776e6572600082015250565b613d7c80620006bd6000396000f3fe6080604052600436106101e35760003560e01c80637b77368b11610102578063a22cb46511610095578063cdb88ad111610064578063cdb88ad1146106af578063d5abeb01146106d8578063e985e9c514610703578063f2fde38b14610740576101e3565b8063a22cb46514610604578063b88d4fde1461062d578063ba41b0c614610656578063c87b56dd14610672576101e3565b80639304001c116100d15780639304001c1461055a578063959e21221461058557806395d89b41146105ae5780639c70b512146105d9576101e3565b80637b77368b146104ae5780638693da20146104d95780638da5cb5b146105045780639257e0441461052f576101e3565b80633ccfd60b1161017a5780635c975abb116101495780635c975abb146103f25780636352211e1461041d57806370a082311461045a578063715018a614610497576101e3565b80633ccfd60b1461035e57806342842e0e14610375578063518302271461039e57806355f804b3146103c9576101e3565b806318160ddd116101b657806318160ddd146102b657806323b872dd146102e15780632eb4a7ab1461030a5780633c95276414610335576101e3565b806301ffc9a7146101e857806306fdde0314610225578063081812fc14610250578063095ea7b31461028d575b600080fd5b3480156101f457600080fd5b5061020f600480360381019061020a9190612f31565b610769565b60405161021c91906133e4565b60405180910390f35b34801561023157600080fd5b5061023a61084b565b604051610247919061341a565b60405180910390f35b34801561025c57600080fd5b5061027760048036038101906102729190612fd4565b6108dd565b604051610284919061337d565b60405180910390f35b34801561029957600080fd5b506102b460048036038101906102af9190612ec4565b610959565b005b3480156102c257600080fd5b506102cb610a64565b6040516102d8919061359c565b60405180910390f35b3480156102ed57600080fd5b5061030860048036038101906103039190612dae565b610a7b565b005b34801561031657600080fd5b5061031f610a8b565b60405161032c91906133ff565b60405180910390f35b34801561034157600080fd5b5061035c60048036038101906103579190612f04565b610ab2565b005b34801561036a57600080fd5b50610373610b4b565b005b34801561038157600080fd5b5061039c60048036038101906103979190612dae565b610c76565b005b3480156103aa57600080fd5b506103b3610c96565b6040516103c091906133e4565b60405180910390f35b3480156103d557600080fd5b506103f060048036038101906103eb9190612f8b565b610ca9565b005b3480156103fe57600080fd5b50610407610d3f565b60405161041491906133e4565b60405180910390f35b34801561042957600080fd5b50610444600480360381019061043f9190612fd4565b610d52565b604051610451919061337d565b60405180910390f35b34801561046657600080fd5b50610481600480360381019061047c9190612d41565b610d68565b60405161048e919061359c565b60405180910390f35b3480156104a357600080fd5b506104ac610e38565b005b3480156104ba57600080fd5b506104c3610ec0565b6040516104d0919061359c565b60405180910390f35b3480156104e557600080fd5b506104ee610ec5565b6040516104fb919061359c565b60405180910390f35b34801561051057600080fd5b50610519610ed0565b604051610526919061337d565b60405180910390f35b34801561053b57600080fd5b50610544610efa565b604051610551919061359c565b60405180910390f35b34801561056657600080fd5b5061056f610f05565b60405161057c91906133e4565b60405180910390f35b34801561059157600080fd5b506105ac60048036038101906105a79190612f8b565b610f1c565b005b3480156105ba57600080fd5b506105c3610fbf565b6040516105d0919061341a565b60405180910390f35b3480156105e557600080fd5b506105ee611051565b6040516105fb91906133e4565b60405180910390f35b34801561061057600080fd5b5061062b60048036038101906106269190612e84565b611064565b005b34801561063957600080fd5b50610654600480360381019061064f9190612e01565b6111dc565b005b610670600480360381019061066b9190613001565b611258565b005b34801561067e57600080fd5b5061069960048036038101906106949190612fd4565b6115c1565b6040516106a6919061341a565b60405180910390f35b3480156106bb57600080fd5b506106d660048036038101906106d19190612f04565b61167e565b005b3480156106e457600080fd5b506106ed611717565b6040516106fa919061359c565b60405180910390f35b34801561070f57600080fd5b5061072a60048036038101906107259190612d6e565b61171d565b60405161073791906133e4565b60405180910390f35b34801561074c57600080fd5b5061076760048036038101906107629190612d41565b6117b1565b005b60007f80ac58cd000000000000000000000000000000000000000000000000000000007bffffffffffffffffffffffffffffffffffffffffffffffffffffffff1916827bffffffffffffffffffffffffffffffffffffffffffffffffffffffff1916148061083457507f5b5e139f000000000000000000000000000000000000000000000000000000007bffffffffffffffffffffffffffffffffffffffffffffffffffffffff1916827bffffffffffffffffffffffffffffffffffffffffffffffffffffffff1916145b806108445750610843826118a9565b5b9050919050565b60606002805461085a90613861565b80601f016020809104026020016040519081016040528092919081815260200182805461088690613861565b80156108d35780601f106108a8576101008083540402835291602001916108d3565b820191906000526020600020905b8154815290600101906020018083116108b657829003601f168201915b5050505050905090565b60006108e882611913565b61091e576040517fcf4700e400000000000000000000000000000000000000000000000000000000815260040160405180910390fd5b6006600083815260200190815260200160002060009054906101000a900473ffffffffffffffffffffffffffffffffffffffff169050919050565b600061096482610d52565b90508073ffffffffffffffffffffffffffffffffffffffff168373ffffffffffffffffffffffffffffffffffffffff1614156109cc576040517f943f7b8c00000000000000000000000000000000000000000000000000000000815260040160405180910390fd5b8073ffffffffffffffffffffffffffffffffffffffff166109eb611961565b73ffffffffffffffffffffffffffffffffffffffff1614158015610a1d5750610a1b81610a16611961565b61171d565b155b15610a54576040517fcfb3b94200000000000000000000000000000000000000000000000000000000815260040160405180910390fd5b610a5f838383611969565b505050565b6000610a6e611a1b565b6001546000540303905090565b610a86838383611a24565b505050565b7f454ca788f7003e172b179451bcec4ea9d3a7e50cce8f70fbd39240012f400d0760001b81565b610aba611961565b73ffffffffffffffffffffffffffffffffffffffff16610ad8610ed0565b73ffffffffffffffffffffffffffffffffffffffff1614610b2e576040517f08c379a0000000000000000000000000000000000000000000000000000000008152600401610b25906134bc565b60405180910390fd5b80600860166101000a81548160ff02191690831515021790555050565b610b53611961565b73ffffffffffffffffffffffffffffffffffffffff16610b71610ed0565b73ffffffffffffffffffffffffffffffffffffffff1614610bc7576040517f08c379a0000000000000000000000000000000000000000000000000000000008152600401610bbe906134bc565b60405180910390fd5b60003373ffffffffffffffffffffffffffffffffffffffff1647604051610bed90613368565b60006040518083038185875af1925050503d8060008114610c2a576040519150601f19603f3d011682016040523d82523d6000602084013e610c2f565b606091505b5050905080610c73576040517f08c379a0000000000000000000000000000000000000000000000000000000008152600401610c6a9061353c565b60405180910390fd5b50565b610c91838383604051806020016040528060008152506111dc565b505050565b600860159054906101000a900460ff1681565b610cb1611961565b73ffffffffffffffffffffffffffffffffffffffff16610ccf610ed0565b73ffffffffffffffffffffffffffffffffffffffff1614610d25576040517f08c379a0000000000000000000000000000000000000000000000000000000008152600401610d1c906134bc565b60405180910390fd5b80600a9080519060200190610d3b929190612abc565b5050565b600860149054906101000a900460ff1681565b6000610d5d82611eda565b600001519050919050565b60008073ffffffffffffffffffffffffffffffffffffffff168273ffffffffffffffffffffffffffffffffffffffff161415610dd0576040517f8f4eb60400000000000000000000000000000000000000000000000000000000815260040160405180910390fd5b600560008373ffffffffffffffffffffffffffffffffffffffff1673ffffffffffffffffffffffffffffffffffffffff16815260200190815260200160002060000160009054906101000a900467ffffffffffffffff1667ffffffffffffffff169050919050565b610e40611961565b73ffffffffffffffffffffffffffffffffffffffff16610e5e610ed0565b73ffffffffffffffffffffffffffffffffffffffff1614610eb4576040517f08c379a0000000000000000000000000000000000000000000000000000000008152600401610eab906134bc565b60405180910390fd5b610ebe6000612169565b565b601481565b66071afd498d000081565b6000600860009054906101000a900473ffffffffffffffffffffffffffffffffffffffff16905090565b66038d7ea4c6800081565b6000600860169054906101000a900460ff16905090565b610f24611961565b73ffffffffffffffffffffffffffffffffffffffff16610f42610ed0565b73ffffffffffffffffffffffffffffffffffffffff1614610f98576040517f08c379a0000000000000000000000000000000000000000000000000000000008152600401610f8f906134bc565b60405180910390fd5b6001600860156101000a81548160ff021916908315150217905550610fbc81610ca9565b50565b606060038054610fce90613861565b80601f0160208091040260200160405190810160405280929190818152602001828054610ffa90613861565b80156110475780601f1061101c57610100808354040283529160200191611047565b820191906000526020600020905b81548152906001019060200180831161102a57829003601f168201915b5050505050905090565b600860169054906101000a900460ff1681565b61106c611961565b73ffffffffffffffffffffffffffffffffffffffff168273ffffffffffffffffffffffffffffffffffffffff1614156110d1576040517fb06307db00000000000000000000000000000000000000000000000000000000815260040160405180910390fd5b80600760006110de611961565b73ffffffffffffffffffffffffffffffffffffffff1673ffffffffffffffffffffffffffffffffffffffff16815260200190815260200160002060008473ffffffffffffffffffffffffffffffffffffffff1673ffffffffffffffffffffffffffffffffffffffff16815260200190815260200160002060006101000a81548160ff0219169083151502179055508173ffffffffffffffffffffffffffffffffffffffff1661118b611961565b73ffffffffffffffffffffffffffffffffffffffff167f17307eab39ab6107e8899845ad3d59bd9653f200f220920489ca2b5937696c31836040516111d091906133e4565b60405180910390a35050565b6111e7848484611a24565b6112068373ffffffffffffffffffffffffffffffffffffffff1661222f565b801561121b575061121984848484612252565b155b15611252576040517fd1a57ed600000000000000000000000000000000000000000000000000000000815260040160405180910390fd5b50505050565b3373ffffffffffffffffffffffffffffffffffffffff163273ffffffffffffffffffffffffffffffffffffffff16146112c6576040517f08c379a00000000000000000000000000000000000000000000000000000000081526004016112bd906134dc565b60405180910390fd5b60006112d0610a64565b905060006112dd336123b2565b9050600860149054906101000a900460ff161561132f576040517f08c379a00000000000000000000000000000000000000000000000000000000081526004016113269061345c565b60405180910390fd5b60008511611372576040517f08c379a00000000000000000000000000000000000000000000000000000000081526004016113699061355c565b60405180910390fd5b6009548286611381919061368c565b11156113c2576040517f08c379a00000000000000000000000000000000000000000000000000000000081526004016113b9906134fc565b60405180910390fd5b601485826113d0919061368c565b1115611411576040517f08c379a00000000000000000000000000000000000000000000000000000000081526004016114089061343c565b60405180910390fd5b600860169054906101000a900460ff161561155a57600033604051602001611439919061331e565b6040516020818303038152906040528051906020012090506114c0858580806020026020016040519081016040528093929190818152602001838360200280828437600081840152601f19601f820116905080830192505050505050507f454ca788f7003e172b179451bcec4ea9d3a7e50cce8f70fbd39240012f400d0760001b8361241c565b6114ff576040517f08c379a00000000000000000000000000000000000000000000000000000000081526004016114f69061357c565b60405180910390fd5b8566038d7ea4c680006115129190613713565b341015611554576040517f08c379a000000000000000000000000000000000000000000000000000000000815260040161154b9061351c565b60405180910390fd5b506115b0565b8466071afd498d000061156d9190613713565b3410156115af576040517f08c379a00000000000000000000000000000000000000000000000000000000081526004016115a69061349c565b60405180910390fd5b5b6115ba3386612433565b5050505050565b60606115cc82611913565b611602576040517fa14c4b5000000000000000000000000000000000000000000000000000000000815260040160405180910390fd5b600061160c612451565b9050600860159054906101000a900460ff1661162b5780915050611679565b60008151141561164a5760405180602001604052806000815250611675565b80611654846124e3565b604051602001611665929190613339565b6040516020818303038152906040525b9150505b919050565b611686611961565b73ffffffffffffffffffffffffffffffffffffffff166116a4610ed0565b73ffffffffffffffffffffffffffffffffffffffff16146116fa576040517f08c379a00000000000000000000000000000000000000000000000000000000081526004016116f1906134bc565b60405180910390fd5b80600860146101000a81548160ff02191690831515021790555050565b60095481565b6000600760008473ffffffffffffffffffffffffffffffffffffffff1673ffffffffffffffffffffffffffffffffffffffff16815260200190815260200160002060008373ffffffffffffffffffffffffffffffffffffffff1673ffffffffffffffffffffffffffffffffffffffff16815260200190815260200160002060009054906101000a900460ff16905092915050565b6117b9611961565b73ffffffffffffffffffffffffffffffffffffffff166117d7610ed0565b73ffffffffffffffffffffffffffffffffffffffff161461182d576040517f08c379a0000000000000000000000000000000000000000000000000000000008152600401611824906134bc565b60405180910390fd5b600073ffffffffffffffffffffffffffffffffffffffff168173ffffffffffffffffffffffffffffffffffffffff16141561189d576040517f08c379a00000000000000000000000000000000000000000000000000000000081526004016118949061347c565b60405180910390fd5b6118a681612169565b50565b60007f01ffc9a7000000000000000000000000000000000000000000000000000000007bffffffffffffffffffffffffffffffffffffffffffffffffffffffff1916827bffffffffffffffffffffffffffffffffffffffffffffffffffffffff1916149050919050565b60008161191e611a1b565b1115801561192d575060005482105b801561195a575060046000838152602001908152602001600020600001601c9054906101000a900460ff16155b9050919050565b600033905090565b826006600084815260200190815260200160002060006101000a81548173ffffffffffffffffffffffffffffffffffffffff021916908373ffffffffffffffffffffffffffffffffffffffff160217905550818373ffffffffffffffffffffffffffffffffffffffff168273ffffffffffffffffffffffffffffffffffffffff167f8c5be1e5ebec7d5bd14f71427d1e84f3dd0314c0f7b2291e5b200ac8c7c3b92560405160405180910390a4505050565b60006001905090565b6000611a2f82611eda565b90508373ffffffffffffffffffffffffffffffffffffffff16816000015173ffffffffffffffffffffffffffffffffffffffff1614611a9a576040517fa114810000000000000000000000000000000000000000000000000000000000815260040160405180910390fd5b60008473ffffffffffffffffffffffffffffffffffffffff16611abb611961565b73ffffffffffffffffffffffffffffffffffffffff161480611aea5750611ae985611ae4611961565b61171d565b5b80611b2f5750611af8611961565b73ffffffffffffffffffffffffffffffffffffffff16611b17846108dd565b73ffffffffffffffffffffffffffffffffffffffff16145b905080611b68576040517f59c896be00000000000000000000000000000000000000000000000000000000815260040160405180910390fd5b600073ffffffffffffffffffffffffffffffffffffffff168473ffffffffffffffffffffffffffffffffffffffff161415611bcf576040517fea553b3400000000000000000000000000000000000000000000000000000000815260040160405180910390fd5b611bdc8585856001612644565b611be860008487611969565b6001600560008773ffffffffffffffffffffffffffffffffffffffff1673ffffffffffffffffffffffffffffffffffffffff16815260200190815260200160002060000160008282829054906101000a900467ffffffffffffffff160392506101000a81548167ffffffffffffffff021916908367ffffffffffffffff1602179055506001600560008673ffffffffffffffffffffffffffffffffffffffff1673ffffffffffffffffffffffffffffffffffffffff16815260200190815260200160002060000160008282829054906101000a900467ffffffffffffffff160192506101000a81548167ffffffffffffffff021916908367ffffffffffffffff1602179055506000600460008581526020019081526020016000209050848160000160006101000a81548173ffffffffffffffffffffffffffffffffffffffff021916908373ffffffffffffffffffffffffffffffffffffffff160217905550428160000160146101000a81548167ffffffffffffffff021916908367ffffffffffffffff16021790555060006001850190506000600460008381526020019081526020016000209050600073ffffffffffffffffffffffffffffffffffffffff168160000160009054906101000a900473ffffffffffffffffffffffffffffffffffffffff1673ffffffffffffffffffffffffffffffffffffffff161415611e68576000548214611e6757878160000160006101000a81548173ffffffffffffffffffffffffffffffffffffffff021916908373ffffffffffffffffffffffffffffffffffffffff16021790555084602001518160000160146101000a81548167ffffffffffffffff021916908367ffffffffffffffff1602179055505b5b505050828473ffffffffffffffffffffffffffffffffffffffff168673ffffffffffffffffffffffffffffffffffffffff167fddf252ad1be2c89b69c2b068fc378daa952ba7f163c4a11628f55a4df523b3ef60405160405180910390a4611ed3858585600161264a565b5050505050565b611ee2612b42565b600082905080611ef0611a1b565b11158015611eff575060005481105b15612132576000600460008381526020019081526020016000206040518060600160405290816000820160009054906101000a900473ffffffffffffffffffffffffffffffffffffffff1673ffffffffffffffffffffffffffffffffffffffff1673ffffffffffffffffffffffffffffffffffffffff1681526020016000820160149054906101000a900467ffffffffffffffff1667ffffffffffffffff1667ffffffffffffffff16815260200160008201601c9054906101000a900460ff1615151515815250509050806040015161213057600073ffffffffffffffffffffffffffffffffffffffff16816000015173ffffffffffffffffffffffffffffffffffffffff1614612014578092505050612164565b5b60011561212f57818060019003925050600460008381526020019081526020016000206040518060600160405290816000820160009054906101000a900473ffffffffffffffffffffffffffffffffffffffff1673ffffffffffffffffffffffffffffffffffffffff1673ffffffffffffffffffffffffffffffffffffffff1681526020016000820160149054906101000a900467ffffffffffffffff1667ffffffffffffffff1667ffffffffffffffff16815260200160008201601c9054906101000a900460ff1615151515815250509050600073ffffffffffffffffffffffffffffffffffffffff16816000015173ffffffffffffffffffffffffffffffffffffffff161461212a578092505050612164565b612015565b5b505b6040517fdf2d9b4200000000000000000000000000000000000000000000000000000000815260040160405180910390fd5b919050565b6000600860009054906101000a900473ffffffffffffffffffffffffffffffffffffffff16905081600860006101000a81548173ffffffffffffffffffffffffffffffffffffffff021916908373ffffffffffffffffffffffffffffffffffffffff1602179055508173ffffffffffffffffffffffffffffffffffffffff168173ffffffffffffffffffffffffffffffffffffffff167f8be0079c531659141344cd1fd0a4f28419497f9722a3daafe3b4186f6b6457e060405160405180910390a35050565b6000808273ffffffffffffffffffffffffffffffffffffffff163b119050919050565b60008373ffffffffffffffffffffffffffffffffffffffff1663150b7a02612278611961565b8786866040518563ffffffff1660e01b815260040161229a9493929190613398565b602060405180830381600087803b1580156122b457600080fd5b505af19250505080156122e557506040513d601f19601f820116820180604052508101906122e29190612f5e565b60015b61235f573d8060008114612315576040519150601f19603f3d011682016040523d82523d6000602084013e61231a565b606091505b50600081511415612357576040517fd1a57ed600000000000000000000000000000000000000000000000000000000815260040160405180910390fd5b805181602001fd5b63150b7a0260e01b7bffffffffffffffffffffffffffffffffffffffffffffffffffffffff1916817bffffffffffffffffffffffffffffffffffffffffffffffffffffffff191614915050949350505050565b6000600560008373ffffffffffffffffffffffffffffffffffffffff1673ffffffffffffffffffffffffffffffffffffffff16815260200190815260200160002060000160089054906101000a900467ffffffffffffffff1667ffffffffffffffff169050919050565b6000826124298584612650565b1490509392505050565b61244d8282604051806020016040528060008152506126c5565b5050565b6060600a805461246090613861565b80601f016020809104026020016040519081016040528092919081815260200182805461248c90613861565b80156124d95780601f106124ae576101008083540402835291602001916124d9565b820191906000526020600020905b8154815290600101906020018083116124bc57829003601f168201915b5050505050905090565b6060600082141561252b576040518060400160405280600181526020017f3000000000000000000000000000000000000000000000000000000000000000815250905061263f565b600082905060005b6000821461255d578080612546906138c4565b915050600a8261255691906136e2565b9150612533565b60008167ffffffffffffffff81111561257957612578613a1e565b5b6040519080825280601f01601f1916602001820160405280156125ab5781602001600182028036833780820191505090505b5090505b60008514612638576001826125c4919061376d565b9150600a856125d39190613931565b60306125df919061368c565b60f81b8183815181106125f5576125f46139ef565b5b60200101907effffffffffffffffffffffffffffffffffffffffffffffffffffffffffffff1916908160001a905350600a8561263191906136e2565b94506125af565b8093505050505b919050565b50505050565b50505050565b60008082905060005b84518110156126ba576000858281518110612677576126766139ef565b5b602002602001015190508083116126995761269283826126d7565b92506126a6565b6126a381846126d7565b92505b5080806126b2906138c4565b915050612659565b508091505092915050565b6126d283838360016126ee565b505050565b600082600052816020526040600020905092915050565b600080549050600073ffffffffffffffffffffffffffffffffffffffff168573ffffffffffffffffffffffffffffffffffffffff16141561275b576040517f2e07630000000000000000000000000000000000000000000000000000000000815260040160405180910390fd5b6000841415612796576040517fb562e8dd00000000000000000000000000000000000000000000000000000000815260040160405180910390fd5b6127a36000868387612644565b83600560008773ffffffffffffffffffffffffffffffffffffffff1673ffffffffffffffffffffffffffffffffffffffff16815260200190815260200160002060000160008282829054906101000a900467ffffffffffffffff160192506101000a81548167ffffffffffffffff021916908367ffffffffffffffff16021790555083600560008773ffffffffffffffffffffffffffffffffffffffff1673ffffffffffffffffffffffffffffffffffffffff16815260200190815260200160002060000160088282829054906101000a900467ffffffffffffffff160192506101000a81548167ffffffffffffffff021916908367ffffffffffffffff160217905550846004600083815260200190815260200160002060000160006101000a81548173ffffffffffffffffffffffffffffffffffffffff021916908373ffffffffffffffffffffffffffffffffffffffff160217905550426004600083815260200190815260200160002060000160146101000a81548167ffffffffffffffff021916908367ffffffffffffffff16021790555060008190506000858201905083801561296d575061296c8773ffffffffffffffffffffffffffffffffffffffff1661222f565b5b15612a33575b818773ffffffffffffffffffffffffffffffffffffffff16600073ffffffffffffffffffffffffffffffffffffffff167fddf252ad1be2c89b69c2b068fc378daa952ba7f163c4a11628f55a4df523b3ef60405160405180910390a46129e26000888480600101955088612252565b612a18576040517fd1a57ed600000000000000000000000000000000000000000000000000000000815260040160405180910390fd5b80821415612973578260005414612a2e57600080fd5b612a9f565b5b818060010192508773ffffffffffffffffffffffffffffffffffffffff16600073ffffffffffffffffffffffffffffffffffffffff167fddf252ad1be2c89b69c2b068fc378daa952ba7f163c4a11628f55a4df523b3ef60405160405180910390a480821415612a34575b816000819055505050612ab5600086838761264a565b5050505050565b828054612ac890613861565b90600052602060002090601f016020900481019282612aea5760008555612b31565b82601f10612b0357805160ff1916838001178555612b31565b82800160010185558215612b31579182015b82811115612b30578251825591602001919060010190612b15565b5b509050612b3e9190612b85565b5090565b6040518060600160405280600073ffffffffffffffffffffffffffffffffffffffff168152602001600067ffffffffffffffff1681526020016000151581525090565b5b80821115612b9e576000816000905550600101612b86565b5090565b6000612bb5612bb0846135dc565b6135b7565b905082815260208101848484011115612bd157612bd0613a5c565b5b612bdc84828561381f565b509392505050565b6000612bf7612bf28461360d565b6135b7565b905082815260208101848484011115612c1357612c12613a5c565b5b612c1e84828561381f565b509392505050565b600081359050612c3581613cea565b92915050565b60008083601f840112612c5157612c50613a52565b5b8235905067ffffffffffffffff811115612c6e57612c6d613a4d565b5b602083019150836020820283011115612c8a57612c89613a57565b5b9250929050565b600081359050612ca081613d01565b92915050565b600081359050612cb581613d18565b92915050565b600081519050612cca81613d18565b92915050565b600082601f830112612ce557612ce4613a52565b5b8135612cf5848260208601612ba2565b91505092915050565b600082601f830112612d1357612d12613a52565b5b8135612d23848260208601612be4565b91505092915050565b600081359050612d3b81613d2f565b92915050565b600060208284031215612d5757612d56613a66565b5b6000612d6584828501612c26565b91505092915050565b60008060408385031215612d8557612d84613a66565b5b6000612d9385828601612c26565b9250506020612da485828601612c26565b9150509250929050565b600080600060608486031215612dc757612dc6613a66565b5b6000612dd586828701612c26565b9350506020612de686828701612c26565b9250506040612df786828701612d2c565b9150509250925092565b60008060008060808587031215612e1b57612e1a613a66565b5b6000612e2987828801612c26565b9450506020612e3a87828801612c26565b9350506040612e4b87828801612d2c565b925050606085013567ffffffffffffffff811115612e6c57612e6b613a61565b5b612e7887828801612cd0565b91505092959194509250565b60008060408385031215612e9b57612e9a613a66565b5b6000612ea985828601612c26565b9250506020612eba85828601612c91565b9150509250929050565b60008060408385031215612edb57612eda613a66565b5b6000612ee985828601612c26565b9250506020612efa85828601612d2c565b9150509250929050565b600060208284031215612f1a57612f19613a66565b5b6000612f2884828501612c91565b91505092915050565b600060208284031215612f4757612f46613a66565b5b6000612f5584828501612ca6565b91505092915050565b600060208284031215612f7457612f73613a66565b5b6000612f8284828501612cbb565b91505092915050565b600060208284031215612fa157612fa0613a66565b5b600082013567ffffffffffffffff811115612fbf57612fbe613a61565b5b612fcb84828501612cfe565b91505092915050565b600060208284031215612fea57612fe9613a66565b5b6000612ff884828501612d2c565b91505092915050565b60008060006040848603121561301a57613019613a66565b5b600061302886828701612d2c565b935050602084013567ffffffffffffffff81111561304957613048613a61565b5b61305586828701612c3b565b92509250509250925092565b61306a816137a1565b82525050565b61308161307c826137a1565b61390d565b82525050565b613090816137b3565b82525050565b61309f816137bf565b82525050565b60006130b08261363e565b6130ba8185613654565b93506130ca81856020860161382e565b6130d381613a6b565b840191505092915050565b60006130e982613649565b6130f38185613670565b935061310381856020860161382e565b61310c81613a6b565b840191505092915050565b600061312282613649565b61312c8185613681565b935061313c81856020860161382e565b80840191505092915050565b6000613155602983613670565b915061316082613a89565b604082019050919050565b6000613178601583613670565b915061318382613ad8565b602082019050919050565b600061319b602683613670565b91506131a682613b01565b604082019050919050565b60006131be601f83613670565b91506131c982613b50565b602082019050919050565b60006131e1600583613681565b91506131ec82613b79565b600582019050919050565b6000613204602083613670565b915061320f82613ba2565b602082019050919050565b6000613227601e83613670565b915061323282613bcb565b602082019050919050565b600061324a602483613670565b915061325582613bf4565b604082019050919050565b600061326d601e83613670565b915061327882613c43565b602082019050919050565b6000613290601483613670565b915061329b82613c6c565b602082019050919050565b60006132b3601c83613670565b91506132be82613c95565b602082019050919050565b60006132d6600083613665565b91506132e182613cbe565b600082019050919050565b60006132f9600e83613670565b915061330482613cc1565b602082019050919050565b61331881613815565b82525050565b600061332a8284613070565b60148201915081905092915050565b60006133458285613117565b91506133518284613117565b915061335c826131d4565b91508190509392505050565b6000613373826132c9565b9150819050919050565b60006020820190506133926000830184613061565b92915050565b60006080820190506133ad6000830187613061565b6133ba6020830186613061565b6133c7604083018561330f565b81810360608301526133d981846130a5565b905095945050505050565b60006020820190506133f96000830184613087565b92915050565b60006020820190506134146000830184613096565b92915050565b6000602082019050818103600083015261343481846130de565b905092915050565b6000602082019050818103600083015261345581613148565b9050919050565b600060208201905081810360008301526134758161316b565b9050919050565b600060208201905081810360008301526134958161318e565b9050919050565b600060208201905081810360008301526134b5816131b1565b9050919050565b600060208201905081810360008301526134d5816131f7565b9050919050565b600060208201905081810360008301526134f58161321a565b9050919050565b600060208201905081810360008301526135158161323d565b9050919050565b6000602082019050818103600083015261353581613260565b9050919050565b6000602082019050818103600083015261355581613283565b9050919050565b60006020820190508181036000830152613575816132a6565b9050919050565b60006020820190508181036000830152613595816132ec565b9050919050565b60006020820190506135b1600083018461330f565b92915050565b60006135c16135d2565b90506135cd8282613893565b919050565b6000604051905090565b600067ffffffffffffffff8211156135f7576135f6613a1e565b5b61360082613a6b565b9050602081019050919050565b600067ffffffffffffffff82111561362857613627613a1e565b5b61363182613a6b565b9050602081019050919050565b600081519050919050565b600081519050919050565b600082825260208201905092915050565b600081905092915050565b600082825260208201905092915050565b600081905092915050565b600061369782613815565b91506136a283613815565b9250827fffffffffffffffffffffffffffffffffffffffffffffffffffffffffffffffff038211156136d7576136d6613962565b5b828201905092915050565b60006136ed82613815565b91506136f883613815565b92508261370857613707613991565b5b828204905092915050565b600061371e82613815565b915061372983613815565b9250817fffffffffffffffffffffffffffffffffffffffffffffffffffffffffffffffff048311821515161561376257613761613962565b5b828202905092915050565b600061377882613815565b915061378383613815565b92508282101561379657613795613962565b5b828203905092915050565b60006137ac826137f5565b9050919050565b60008115159050919050565b6000819050919050565b60007fffffffff0000000000000000000000000000000000000000000000000000000082169050919050565b600073ffffffffffffffffffffffffffffffffffffffff82169050919050565b6000819050919050565b82818337600083830152505050565b60005b8381101561384c578082015181840152602081019050613831565b8381111561385b576000848401525b50505050565b6000600282049050600182168061387957607f821691505b6020821081141561388d5761388c6139c0565b5b50919050565b61389c82613a6b565b810181811067ffffffffffffffff821117156138bb576138ba613a1e565b5b80604052505050565b60006138cf82613815565b91507fffffffffffffffffffffffffffffffffffffffffffffffffffffffffffffffff82141561390257613901613962565b5b600182019050919050565b60006139188261391f565b9050919050565b600061392a82613a7c565b9050919050565b600061393c82613815565b915061394783613815565b92508261395757613956613991565b5b828206905092915050565b7f4e487b7100000000000000000000000000000000000000000000000000000000600052601160045260246000fd5b7f4e487b7100000000000000000000000000000000000000000000000000000000600052601260045260246000fd5b7f4e487b7100000000000000000000000000000000000000000000000000000000600052602260045260246000fd5b7f4e487b7100000000000000000000000000000000000000000000000000000000600052603260045260246000fd5b7f4e487b7100000000000000000000000000000000000000000000000000000000600052604160045260246000fd5b600080fd5b600080fd5b600080fd5b600080fd5b600080fd5b600080fd5b6000601f19601f8301169050919050565b60008160601b9050919050565b7f4d6178696d756d206e756d626572206f6620746f6b656e73206d696e7465642060008201527f65786365656465642e0000000000000000000000000000000000000000000000602082015250565b7f5468652073616c65206861732073746f707065642e0000000000000000000000600082015250565b7f4f776e61626c653a206e6577206f776e657220697320746865207a65726f206160008201527f6464726573730000000000000000000000000000000000000000000000000000602082015250565b7f496e76616c696420616d6f756e74206f6620746f6b656e732073656e742e2000600082015250565b7f2e6a736f6e000000000000000000000000000000000000000000000000000000600082015250565b7f4f776e61626c653a2063616c6c6572206973206e6f7420746865206f776e6572600082015250565b7f43616c6c6572206d757374206e6f74206265206120636f6e74726163742e0000600082015250565b7f546f74616c20737570706c792065786365656473206d6178696d756d2073757060008201527f706c792e00000000000000000000000000000000000000000000000000000000602082015250565b7f496e76616c696420616d6f756e74206f6620746f6b656e732073656e742e0000600082015250565b7f5472616e7366657220686173206661696c65642e000000000000000000000000600082015250565b7f4d696e696d756d20616d6f756e7420746f206d696e7420697320312e00000000600082015250565b50565b7f496e76616c69642070726f6f662e000000000000000000000000000000000000600082015250565b613cf3816137a1565b8114613cfe57600080fd5b50565b613d0a816137b3565b8114613d1557600080fd5b50565b613d21816137c9565b8114613d2c57600080fd5b50565b613d3881613815565b8114613d4357600080fd5b5056fea26469706673582212206f9261eafd1e905a688ffe469619e7ebef9abd64ea79be493ceb8fc7da3d398564736f6c63430008070033",
  "linkReferences": {},
  "deployedLinkReferences": {}
}