{
  "_format": "hh-sol-artifact-1",
  "contractName": "Cards",
  "sourceName": "contracts/Cards.sol",
  "abi": [
    {
      "inputs": [
        {
          "internalType": "string",
          "name": "_baseTokenURI",
          "type": "string"
        }
      ],
      "stateMutability": "nonpayable",
      "type": "constructor"
    },
    {
      "inputs": [],
      "name": "ApprovalCallerNotOwnerNorApproved",
      "type": "error"
    },
    {
      "inputs": [],
      "name": "ApprovalQueryForNonexistentToken",
      "type": "error"
    },
    {
      "inputs": [],
      "name": "ApprovalToCurrentOwner",
      "type": "error"
    },
    {
      "inputs": [],
      "name": "ApproveToCaller",
      "type": "error"
    },
    {
      "inputs": [],
      "name": "BalanceQueryForZeroAddress",
      "type": "error"
    },
    {
      "inputs": [],
      "name": "MintToZeroAddress",
      "type": "error"
    },
    {
      "inputs": [],
      "name": "MintZeroQuantity",
      "type": "error"
    },
    {
      "inputs": [],
      "name": "OwnerQueryForNonexistentToken",
      "type": "error"
    },
    {
      "inputs": [],
      "name": "TransferCallerNotOwnerNorApproved",
      "type": "error"
    },
    {
      "inputs": [],
      "name": "TransferFromIncorrectOwner",
      "type": "error"
    },
    {
      "inputs": [],
      "name": "TransferToNonERC721ReceiverImplementer",
      "type": "error"
    },
    {
      "inputs": [],
      "name": "TransferToZeroAddress",
      "type": "error"
    },
    {
      "inputs": [],
      "name": "URIQueryForNonexistentToken",
      "type": "error"
    },
    {
      "anonymous": false,
      "inputs": [
        {
          "indexed": true,
          "internalType": "address",
          "name": "owner",
          "type": "address"
        },
        {
          "indexed": true,
          "internalType": "address",
          "name": "approved",
          "type": "address"
        },
        {
          "indexed": true,
          "internalType": "uint256",
          "name": "tokenId",
          "type": "uint256"
        }
      ],
      "name": "Approval",
      "type": "event"
    },
    {
      "anonymous": false,
      "inputs": [
        {
          "indexed": true,
          "internalType": "address",
          "name": "owner",
          "type": "address"
        },
        {
          "indexed": true,
          "internalType": "address",
          "name": "operator",
          "type": "address"
        },
        {
          "indexed": false,
          "internalType": "bool",
          "name": "approved",
          "type": "bool"
        }
      ],
      "name": "ApprovalForAll",
      "type": "event"
    },
    {
      "anonymous": false,
      "inputs": [
        {
          "indexed": true,
          "internalType": "address",
          "name": "previousOwner",
          "type": "address"
        },
        {
          "indexed": true,
          "internalType": "address",
          "name": "newOwner",
          "type": "address"
        }
      ],
      "name": "OwnershipTransferred",
      "type": "event"
    },
    {
      "anonymous": false,
      "inputs": [
        {
          "indexed": true,
          "internalType": "address",
          "name": "from",
          "type": "address"
        },
        {
          "indexed": true,
          "internalType": "address",
          "name": "to",
          "type": "address"
        },
        {
          "indexed": true,
          "internalType": "uint256",
          "name": "tokenId",
          "type": "uint256"
        }
      ],
      "name": "Transfer",
      "type": "event"
    },
    {
      "inputs": [
        {
          "internalType": "address",
          "name": "to",
          "type": "address"
        },
        {
          "internalType": "uint256",
          "name": "tokenId",
          "type": "uint256"
        }
      ],
      "name": "approve",
      "outputs": [],
      "stateMutability": "nonpayable",
      "type": "function"
    },
    {
      "inputs": [
        {
          "internalType": "address",
          "name": "owner",
          "type": "address"
        }
      ],
      "name": "balanceOf",
      "outputs": [
        {
          "internalType": "uint256",
          "name": "",
          "type": "uint256"
        }
      ],
      "stateMutability": "view",
      "type": "function"
    },
    {
      "inputs": [
        {
          "internalType": "uint256",
          "name": "tokenId",
          "type": "uint256"
        }
      ],
      "name": "getApproved",
      "outputs": [
        {
          "internalType": "address",
          "name": "",
          "type": "address"
        }
      ],
      "stateMutability": "view",
      "type": "function"
    },
    {
      "inputs": [],
      "name": "getOnlyWhitelisted",
      "outputs": [
        {
          "internalType": "bool",
          "name": "",
          "type": "bool"
        }
      ],
      "stateMutability": "view",
      "type": "function"
    },
    {
      "inputs": [
        {
          "internalType": "address",
          "name": "owner",
          "type": "address"
        },
        {
          "internalType": "address",
          "name": "operator",
          "type": "address"
        }
      ],
      "name": "isApprovedForAll",
      "outputs": [
        {
          "internalType": "bool",
          "name": "",
          "type": "bool"
        }
      ],
      "stateMutability": "view",
      "type": "function"
    },
    {
      "inputs": [],
      "name": "maxPerAddressMint",
      "outputs": [
        {
          "internalType": "uint256",
          "name": "",
          "type": "uint256"
        }
      ],
      "stateMutability": "view",
      "type": "function"
    },
    {
      "inputs": [],
      "name": "maxSupply",
      "outputs": [
        {
          "internalType": "uint256",
          "name": "",
          "type": "uint256"
        }
      ],
      "stateMutability": "view",
      "type": "function"
    },
    {
      "inputs": [],
      "name": "merkleRoot",
      "outputs": [
        {
          "internalType": "bytes32",
          "name": "",
          "type": "bytes32"
        }
      ],
      "stateMutability": "view",
      "type": "function"
    },
    {
      "inputs": [
        {
          "internalType": "uint256",
          "name": "quantity",
          "type": "uint256"
        },
        {
          "internalType": "bytes32[]",
          "name": "_merkleProof",
          "type": "bytes32[]"
        }
      ],
      "name": "mint",
      "outputs": [],
      "stateMutability": "payable",
      "type": "function"
    },
    {
      "inputs": [],
      "name": "name",
      "outputs": [
        {
          "internalType": "string",
          "name": "",
          "type": "string"
        }
      ],
      "stateMutability": "view",
      "type": "function"
    },
    {
      "inputs": [],
      "name": "onlyWhitelisted",
      "outputs": [
        {
          "internalType": "bool",
          "name": "",
          "type": "bool"
        }
      ],
      "stateMutability": "view",
      "type": "function"
    },
    {
      "inputs": [],
      "name": "owner",
      "outputs": [
        {
          "internalType": "address",
          "name": "",
          "type": "address"
        }
      ],
      "stateMutability": "view",
      "type": "function"
    },
    {
      "inputs": [
        {
          "internalType": "uint256",
          "name": "tokenId",
          "type": "uint256"
        }
      ],
      "name": "ownerOf",
      "outputs": [
        {
          "internalType": "address",
          "name": "",
          "type": "address"
        }
      ],
      "stateMutability": "view",
      "type": "function"
    },
    {
      "inputs": [],
      "name": "paused",
      "outputs": [
        {
          "internalType": "bool",
          "name": "",
          "type": "bool"
        }
      ],
      "stateMutability": "view",
      "type": "function"
    },
    {
      "inputs": [],
      "name": "publicCost",
      "outputs": [
        {
          "internalType": "uint256",
          "name": "",
          "type": "uint256"
        }
      ],
      "stateMutability": "view",
      "type": "function"
    },
    {
      "inputs": [],
      "name": "renounceOwnership",
      "outputs": [],
      "stateMutability": "nonpayable",
      "type": "function"
    },
    {
      "inputs": [],
      "name": "revealed",
      "outputs": [
        {
          "internalType": "bool",
          "name": "",
          "type": "bool"
        }
      ],
      "stateMutability": "view",
      "type": "function"
    },
    {
      "inputs": [
        {
          "internalType": "address",
          "name": "from",
          "type": "address"
        },
        {
          "internalType": "address",
          "name": "to",
          "type": "address"
        },
        {
          "internalType": "uint256",
          "name": "tokenId",
          "type": "uint256"
        }
      ],
      "name": "safeTransferFrom",
      "outputs": [],
      "stateMutability": "nonpayable",
      "type": "function"
    },
    {
      "inputs": [
        {
          "internalType": "address",
          "name": "from",
          "type": "address"
        },
        {
          "internalType": "address",
          "name": "to",
          "type": "address"
        },
        {
          "internalType": "uint256",
          "name": "tokenId",
          "type": "uint256"
        },
        {
          "internalType": "bytes",
          "name": "_data",
          "type": "bytes"
        }
      ],
      "name": "safeTransferFrom",
      "outputs": [],
      "stateMutability": "nonpayable",
      "type": "function"
    },
    {
      "inputs": [
        {
          "internalType": "address",
          "name": "operator",
          "type": "address"
        },
        {
          "internalType": "bool",
          "name": "approved",
          "type": "bool"
        }
      ],
      "name": "setApprovalForAll",
      "outputs": [],
      "stateMutability": "nonpayable",
      "type": "function"
    },
    {
      "inputs": [
        {
          "internalType": "string",
          "name": "_baseTokenURI",
          "type": "string"
        }
      ],
      "name": "setBaseURI",
      "outputs": [],
      "stateMutability": "nonpayable",
      "type": "function"
    },
    {
      "inputs": [
        {
          "internalType": "bool",
          "name": "_state",
          "type": "bool"
        }
      ],
      "name": "setOnlyWhitelisted",
      "outputs": [],
      "stateMutability": "nonpayable",
      "type": "function"
    },
    {
      "inputs": [
        {
          "internalType": "bool",
          "name": "_state",
          "type": "bool"
        }
      ],
      "name": "setPauseState",
      "outputs": [],
      "stateMutability": "nonpayable",
      "type": "function"
    },
    {
      "inputs": [
        {
          "internalType": "string",
          "name": "_newURI",
          "type": "string"
        }
      ],
      "name": "setRevealState",
      "outputs": [],
      "stateMutability": "nonpayable",
      "type": "function"
    },
    {
      "inputs": [
        {
          "internalType": "bytes4",
          "name": "interfaceId",
          "type": "bytes4"
        }
      ],
      "name": "supportsInterface",
      "outputs": [
        {
          "internalType": "bool",
          "name": "",
          "type": "bool"
        }
      ],
      "stateMutability": "view",
      "type": "function"
    },
    {
      "inputs": [],
      "name": "symbol",
      "outputs": [
        {
          "internalType": "string",
          "name": "",
          "type": "string"
        }
      ],
      "stateMutability": "view",
      "type": "function"
    },
    {
      "inputs": [
        {
          "internalType": "uint256",
          "name": "tokenId",
          "type": "uint256"
        }
      ],
      "name": "tokenURI",
      "outputs": [
        {
          "internalType": "string",
          "name": "",
          "type": "string"
        }
      ],
      "stateMutability": "view",
      "type": "function"
    },
    {
      "inputs": [],
      "name": "totalSupply",
      "outputs": [
        {
          "internalType": "uint256",
          "name": "",
          "type": "uint256"
        }
      ],
      "stateMutability": "view",
      "type": "function"
    },
    {
      "inputs": [
        {
          "internalType": "address",
          "name": "from",
          "type": "address"
        },
        {
          "internalType": "address",
          "name": "to",
          "type": "address"
        },
        {
          "internalType": "uint256",
          "name": "tokenId",
          "type": "uint256"
        }
      ],
      "name": "transferFrom",
      "outputs": [],
      "stateMutability": "nonpayable",
      "type": "function"
    },
    {
      "inputs": [
        {
          "internalType": "address",
          "name": "newOwner",
          "type": "address"
        }
      ],
      "name": "transferOwnership",
      "outputs": [],
      "stateMutability": "nonpayable",
      "type": "function"
    },
    {
      "inputs": [],
      "name": "whiteListCost",
      "outputs": [
        {
          "internalType": "uint256",
          "name": "",
          "type": "uint256"
        }
      ],
      "stateMutability": "view",
      "type": "function"
    },
    {
      "inputs": [],
      "name": "withdraw",
      "outputs": [],
      "stateMutability": "nonpayable",
      "type": "function"
    }
  ],
  "bytecode": "0x60806040526000600860146101000a81548160ff0219169083151502179055506000600860156101000a81548160ff0219169083151502179055506001600860166101000a81548160ff02191690831515021790555060d06009553480156200006757600080fd5b50604051620043bf380380620043bf83398181016040528101906200008d919062000451565b6040518060400160405280600581526020017f43617264730000000000000000000000000000000000000000000000000000008152506040518060400160405280600481526020017f434152440000000000000000000000000000000000000000000000000000000081525081600290805190602001906200011192919062000323565b5080600390805190602001906200012a92919062000323565b506200013b6200017b60201b60201c565b600081905550505062000163620001576200018060201b60201c565b6200018860201b60201c565b62000174816200024e60201b60201c565b50620006a9565b600090565b600033905090565b6000600860009054906101000a900473ffffffffffffffffffffffffffffffffffffffff16905081600860006101000a81548173ffffffffffffffffffffffffffffffffffffffff021916908373ffffffffffffffffffffffffffffffffffffffff1602179055508173ffffffffffffffffffffffffffffffffffffffff168173ffffffffffffffffffffffffffffffffffffffff167f8be0079c531659141344cd1fd0a4f28419497f9722a3daafe3b4186f6b6457e060405160405180910390a35050565b6200025e6200018060201b60201c565b73ffffffffffffffffffffffffffffffffffffffff1662000284620002f960201b60201c565b73ffffffffffffffffffffffffffffffffffffffff1614620002dd576040517f08c379a0000000000000000000000000000000000000000000000000000000008152600401620002d490620004c9565b60405180910390fd5b80600a9080519060200190620002f592919062000323565b5050565b6000600860009054906101000a900473ffffffffffffffffffffffffffffffffffffffff16905090565b828054620003319062000591565b90600052602060002090601f016020900481019282620003555760008555620003a1565b82601f106200037057805160ff1916838001178555620003a1565b82800160010185558215620003a1579182015b82811115620003a057825182559160200191906001019062000383565b5b509050620003b09190620003b4565b5090565b5b80821115620003cf576000816000905550600101620003b5565b5090565b6000620003ea620003e48462000514565b620004eb565b90508281526020810184848401111562000409576200040862000660565b5b620004168482856200055b565b509392505050565b600082601f8301126200043657620004356200065b565b5b815162000448848260208601620003d3565b91505092915050565b6000602082840312156200046a57620004696200066a565b5b600082015167ffffffffffffffff8111156200048b576200048a62000665565b5b62000499848285016200041e565b91505092915050565b6000620004b16020836200054a565b9150620004be8262000680565b602082019050919050565b60006020820190508181036000830152620004e481620004a2565b9050919050565b6000620004f76200050a565b9050620005058282620005c7565b919050565b6000604051905090565b600067ffffffffffffffff8211156200053257620005316200062c565b5b6200053d826200066f565b9050602081019050919050565b600082825260208201905092915050565b60005b838110156200057b5780820151818401526020810190506200055e565b838111156200058b576000848401525b50505050565b60006002820490506001821680620005aa57607f821691505b60208210811415620005c157620005c0620005fd565b5b50919050565b620005d2826200066f565b810181811067ffffffffffffffff82111715620005f457620005f36200062c565b5b80604052505050565b7f4e487b7100000000000000000000000000000000000000000000000000000000600052602260045260246000fd5b7f4e487b7100000000000000000000000000000000000000000000000000000000600052604160045260246000fd5b600080fd5b600080fd5b600080fd5b600080fd5b6000601f19601f8301169050919050565b7f4f776e61626c653a2063616c6c6572206973206e6f7420746865206f776e6572600082015250565b613d0680620006b96000396000f3fe6080604052600436106101e35760003560e01c80637b77368b11610102578063a22cb46511610095578063cdb88ad111610064578063cdb88ad1146106af578063d5abeb01146106d8578063e985e9c514610703578063f2fde38b14610740576101e3565b8063a22cb46514610604578063b88d4fde1461062d578063ba41b0c614610656578063c87b56dd14610672576101e3565b80639304001c116100d15780639304001c1461055a578063959e21221461058557806395d89b41146105ae5780639c70b512146105d9576101e3565b80637b77368b146104ae5780638693da20146104d95780638da5cb5b146105045780639257e0441461052f576101e3565b80633ccfd60b1161017a5780635c975abb116101495780635c975abb146103f25780636352211e1461041d57806370a082311461045a578063715018a614610497576101e3565b80633ccfd60b1461035e57806342842e0e14610375578063518302271461039e57806355f804b3146103c9576101e3565b806318160ddd116101b657806318160ddd146102b657806323b872dd146102e15780632eb4a7ab1461030a5780633c95276414610335576101e3565b806301ffc9a7146101e857806306fdde0314610225578063081812fc14610250578063095ea7b31461028d575b600080fd5b3480156101f457600080fd5b5061020f600480360381019061020a9190612f15565b610769565b60405161021c91906133c8565b60405180910390f35b34801561023157600080fd5b5061023a61084b565b60405161024791906133fe565b60405180910390f35b34801561025c57600080fd5b5061027760048036038101906102729190612fb8565b6108dd565b6040516102849190613361565b60405180910390f35b34801561029957600080fd5b506102b460048036038101906102af9190612ea8565b610959565b005b3480156102c257600080fd5b506102cb610a64565b6040516102d89190613580565b60405180910390f35b3480156102ed57600080fd5b5061030860048036038101906103039190612d92565b610a7b565b005b34801561031657600080fd5b5061031f610a8b565b60405161032c91906133e3565b60405180910390f35b34801561034157600080fd5b5061035c60048036038101906103579190612ee8565b610ab2565b005b34801561036a57600080fd5b50610373610b4b565b005b34801561038157600080fd5b5061039c60048036038101906103979190612d92565b610c76565b005b3480156103aa57600080fd5b506103b3610c96565b6040516103c091906133c8565b60405180910390f35b3480156103d557600080fd5b506103f060048036038101906103eb9190612f6f565b610ca9565b005b3480156103fe57600080fd5b50610407610d3f565b60405161041491906133c8565b60405180910390f35b34801561042957600080fd5b50610444600480360381019061043f9190612fb8565b610d52565b6040516104519190613361565b60405180910390f35b34801561046657600080fd5b50610481600480360381019061047c9190612d25565b610d68565b60405161048e9190613580565b60405180910390f35b3480156104a357600080fd5b506104ac610e38565b005b3480156104ba57600080fd5b506104c3610ec0565b6040516104d09190613580565b60405180910390f35b3480156104e557600080fd5b506104ee610ec5565b6040516104fb9190613580565b60405180910390f35b34801561051057600080fd5b50610519610ed0565b6040516105269190613361565b60405180910390f35b34801561053b57600080fd5b50610544610efa565b6040516105519190613580565b60405180910390f35b34801561056657600080fd5b5061056f610f05565b60405161057c91906133c8565b60405180910390f35b34801561059157600080fd5b506105ac60048036038101906105a79190612f6f565b610f1c565b005b3480156105ba57600080fd5b506105c3610fbf565b6040516105d091906133fe565b60405180910390f35b3480156105e557600080fd5b506105ee611051565b6040516105fb91906133c8565b60405180910390f35b34801561061057600080fd5b5061062b60048036038101906106269190612e68565b611064565b005b34801561063957600080fd5b50610654600480360381019061064f9190612de5565b6111dc565b005b610670600480360381019061066b9190612fe5565b611258565b005b34801561067e57600080fd5b5061069960048036038101906106949190612fb8565b6115a9565b6040516106a691906133fe565b60405180910390f35b3480156106bb57600080fd5b506106d660048036038101906106d19190612ee8565b611666565b005b3480156106e457600080fd5b506106ed6116ff565b6040516106fa9190613580565b60405180910390f35b34801561070f57600080fd5b5061072a60048036038101906107259190612d52565b611705565b60405161073791906133c8565b60405180910390f35b34801561074c57600080fd5b5061076760048036038101906107629190612d25565b611799565b005b60007f80ac58cd000000000000000000000000000000000000000000000000000000007bffffffffffffffffffffffffffffffffffffffffffffffffffffffff1916827bffffffffffffffffffffffffffffffffffffffffffffffffffffffff1916148061083457507f5b5e139f000000000000000000000000000000000000000000000000000000007bffffffffffffffffffffffffffffffffffffffffffffffffffffffff1916827bffffffffffffffffffffffffffffffffffffffffffffffffffffffff1916145b80610844575061084382611891565b5b9050919050565b60606002805461085a906137eb565b80601f0160208091040260200160405190810160405280929190818152602001828054610886906137eb565b80156108d35780601f106108a8576101008083540402835291602001916108d3565b820191906000526020600020905b8154815290600101906020018083116108b657829003601f168201915b5050505050905090565b60006108e8826118fb565b61091e576040517fcf4700e400000000000000000000000000000000000000000000000000000000815260040160405180910390fd5b6006600083815260200190815260200160002060009054906101000a900473ffffffffffffffffffffffffffffffffffffffff169050919050565b600061096482610d52565b90508073ffffffffffffffffffffffffffffffffffffffff168373ffffffffffffffffffffffffffffffffffffffff1614156109cc576040517f943f7b8c00000000000000000000000000000000000000000000000000000000815260040160405180910390fd5b8073ffffffffffffffffffffffffffffffffffffffff166109eb611949565b73ffffffffffffffffffffffffffffffffffffffff1614158015610a1d5750610a1b81610a16611949565b611705565b155b15610a54576040517fcfb3b94200000000000000000000000000000000000000000000000000000000815260040160405180910390fd5b610a5f838383611951565b505050565b6000610a6e611a03565b6001546000540303905090565b610a86838383611a08565b505050565b7f454ca788f7003e172b179451bcec4ea9d3a7e50cce8f70fbd39240012f400d0760001b81565b610aba611949565b73ffffffffffffffffffffffffffffffffffffffff16610ad8610ed0565b73ffffffffffffffffffffffffffffffffffffffff1614610b2e576040517f08c379a0000000000000000000000000000000000000000000000000000000008152600401610b25906134a0565b60405180910390fd5b80600860166101000a81548160ff02191690831515021790555050565b610b53611949565b73ffffffffffffffffffffffffffffffffffffffff16610b71610ed0565b73ffffffffffffffffffffffffffffffffffffffff1614610bc7576040517f08c379a0000000000000000000000000000000000000000000000000000000008152600401610bbe906134a0565b60405180910390fd5b60003373ffffffffffffffffffffffffffffffffffffffff1647604051610bed9061334c565b60006040518083038185875af1925050503d8060008114610c2a576040519150601f19603f3d011682016040523d82523d6000602084013e610c2f565b606091505b5050905080610c73576040517f08c379a0000000000000000000000000000000000000000000000000000000008152600401610c6a90613520565b60405180910390fd5b50565b610c91838383604051806020016040528060008152506111dc565b505050565b600860159054906101000a900460ff1681565b610cb1611949565b73ffffffffffffffffffffffffffffffffffffffff16610ccf610ed0565b73ffffffffffffffffffffffffffffffffffffffff1614610d25576040517f08c379a0000000000000000000000000000000000000000000000000000000008152600401610d1c906134a0565b60405180910390fd5b80600a9080519060200190610d3b929190612aa0565b5050565b600860149054906101000a900460ff1681565b6000610d5d82611ebe565b600001519050919050565b60008073ffffffffffffffffffffffffffffffffffffffff168273ffffffffffffffffffffffffffffffffffffffff161415610dd0576040517f8f4eb60400000000000000000000000000000000000000000000000000000000815260040160405180910390fd5b600560008373ffffffffffffffffffffffffffffffffffffffff1673ffffffffffffffffffffffffffffffffffffffff16815260200190815260200160002060000160009054906101000a900467ffffffffffffffff1667ffffffffffffffff169050919050565b610e40611949565b73ffffffffffffffffffffffffffffffffffffffff16610e5e610ed0565b73ffffffffffffffffffffffffffffffffffffffff1614610eb4576040517f08c379a0000000000000000000000000000000000000000000000000000000008152600401610eab906134a0565b60405180910390fd5b610ebe600061214d565b565b600581565b66470de4df82000081565b6000600860009054906101000a900473ffffffffffffffffffffffffffffffffffffffff16905090565b662386f26fc1000081565b6000600860169054906101000a900460ff16905090565b610f24611949565b73ffffffffffffffffffffffffffffffffffffffff16610f42610ed0565b73ffffffffffffffffffffffffffffffffffffffff1614610f98576040517f08c379a0000000000000000000000000000000000000000000000000000000008152600401610f8f906134a0565b60405180910390fd5b6001600860156101000a81548160ff021916908315150217905550610fbc81610ca9565b50565b606060038054610fce906137eb565b80601f0160208091040260200160405190810160405280929190818152602001828054610ffa906137eb565b80156110475780601f1061101c57610100808354040283529160200191611047565b820191906000526020600020905b81548152906001019060200180831161102a57829003601f168201915b5050505050905090565b600860169054906101000a900460ff1681565b61106c611949565b73ffffffffffffffffffffffffffffffffffffffff168273ffffffffffffffffffffffffffffffffffffffff1614156110d1576040517fb06307db00000000000000000000000000000000000000000000000000000000815260040160405180910390fd5b80600760006110de611949565b73ffffffffffffffffffffffffffffffffffffffff1673ffffffffffffffffffffffffffffffffffffffff16815260200190815260200160002060008473ffffffffffffffffffffffffffffffffffffffff1673ffffffffffffffffffffffffffffffffffffffff16815260200190815260200160002060006101000a81548160ff0219169083151502179055508173ffffffffffffffffffffffffffffffffffffffff1661118b611949565b73ffffffffffffffffffffffffffffffffffffffff167f17307eab39ab6107e8899845ad3d59bd9653f200f220920489ca2b5937696c31836040516111d091906133c8565b60405180910390a35050565b6111e7848484611a08565b6112068373ffffffffffffffffffffffffffffffffffffffff16612213565b801561121b575061121984848484612236565b155b15611252576040517fd1a57ed600000000000000000000000000000000000000000000000000000000815260040160405180910390fd5b50505050565b3373ffffffffffffffffffffffffffffffffffffffff163273ffffffffffffffffffffffffffffffffffffffff16146112c6576040517f08c379a00000000000000000000000000000000000000000000000000000000081526004016112bd906134c0565b60405180910390fd5b60006112d0610a64565b905060006112dd33612396565b9050600860149054906101000a900460ff161561132f576040517f08c379a000000000000000000000000000000000000000000000000000000000815260040161132690613440565b60405180910390fd5b60008511611372576040517f08c379a000000000000000000000000000000000000000000000000000000000815260040161136990613540565b60405180910390fd5b60095482866113819190613670565b11156113c2576040517f08c379a00000000000000000000000000000000000000000000000000000000081526004016113b9906134e0565b60405180910390fd5b600585826113d09190613670565b1115611411576040517f08c379a000000000000000000000000000000000000000000000000000000000815260040161140890613420565b60405180910390fd5b600860169054906101000a900460ff161561154e576000336040516020016114399190613302565b6040516020818303038152906040528051906020012090506114c0858580806020026020016040519081016040528093929190818152602001838360200280828437600081840152601f19601f820116905080830192505050505050507f454ca788f7003e172b179451bcec4ea9d3a7e50cce8f70fbd39240012f400d0760001b83612400565b6114ff576040517f08c379a00000000000000000000000000000000000000000000000000000000081526004016114f690613560565b60405180910390fd5b662386f26fc100003414611548576040517f08c379a000000000000000000000000000000000000000000000000000000000815260040161153f90613500565b60405180910390fd5b50611598565b66470de4df8200003414611597576040517f08c379a000000000000000000000000000000000000000000000000000000000815260040161158e90613480565b60405180910390fd5b5b6115a23386612417565b5050505050565b60606115b4826118fb565b6115ea576040517fa14c4b5000000000000000000000000000000000000000000000000000000000815260040160405180910390fd5b60006115f4612435565b9050600860159054906101000a900460ff166116135780915050611661565b600081511415611632576040518060200160405280600081525061165d565b8061163c846124c7565b60405160200161164d92919061331d565b6040516020818303038152906040525b9150505b919050565b61166e611949565b73ffffffffffffffffffffffffffffffffffffffff1661168c610ed0565b73ffffffffffffffffffffffffffffffffffffffff16146116e2576040517f08c379a00000000000000000000000000000000000000000000000000000000081526004016116d9906134a0565b60405180910390fd5b80600860146101000a81548160ff02191690831515021790555050565b60095481565b6000600760008473ffffffffffffffffffffffffffffffffffffffff1673ffffffffffffffffffffffffffffffffffffffff16815260200190815260200160002060008373ffffffffffffffffffffffffffffffffffffffff1673ffffffffffffffffffffffffffffffffffffffff16815260200190815260200160002060009054906101000a900460ff16905092915050565b6117a1611949565b73ffffffffffffffffffffffffffffffffffffffff166117bf610ed0565b73ffffffffffffffffffffffffffffffffffffffff1614611815576040517f08c379a000000000000000000000000000000000000000000000000000000000815260040161180c906134a0565b60405180910390fd5b600073ffffffffffffffffffffffffffffffffffffffff168173ffffffffffffffffffffffffffffffffffffffff161415611885576040517f08c379a000000000000000000000000000000000000000000000000000000000815260040161187c90613460565b60405180910390fd5b61188e8161214d565b50565b60007f01ffc9a7000000000000000000000000000000000000000000000000000000007bffffffffffffffffffffffffffffffffffffffffffffffffffffffff1916827bffffffffffffffffffffffffffffffffffffffffffffffffffffffff1916149050919050565b600081611906611a03565b11158015611915575060005482105b8015611942575060046000838152602001908152602001600020600001601c9054906101000a900460ff16155b9050919050565b600033905090565b826006600084815260200190815260200160002060006101000a81548173ffffffffffffffffffffffffffffffffffffffff021916908373ffffffffffffffffffffffffffffffffffffffff160217905550818373ffffffffffffffffffffffffffffffffffffffff168273ffffffffffffffffffffffffffffffffffffffff167f8c5be1e5ebec7d5bd14f71427d1e84f3dd0314c0f7b2291e5b200ac8c7c3b92560405160405180910390a4505050565b600090565b6000611a1382611ebe565b90508373ffffffffffffffffffffffffffffffffffffffff16816000015173ffffffffffffffffffffffffffffffffffffffff1614611a7e576040517fa114810000000000000000000000000000000000000000000000000000000000815260040160405180910390fd5b60008473ffffffffffffffffffffffffffffffffffffffff16611a9f611949565b73ffffffffffffffffffffffffffffffffffffffff161480611ace5750611acd85611ac8611949565b611705565b5b80611b135750611adc611949565b73ffffffffffffffffffffffffffffffffffffffff16611afb846108dd565b73ffffffffffffffffffffffffffffffffffffffff16145b905080611b4c576040517f59c896be00000000000000000000000000000000000000000000000000000000815260040160405180910390fd5b600073ffffffffffffffffffffffffffffffffffffffff168473ffffffffffffffffffffffffffffffffffffffff161415611bb3576040517fea553b3400000000000000000000000000000000000000000000000000000000815260040160405180910390fd5b611bc08585856001612628565b611bcc60008487611951565b6001600560008773ffffffffffffffffffffffffffffffffffffffff1673ffffffffffffffffffffffffffffffffffffffff16815260200190815260200160002060000160008282829054906101000a900467ffffffffffffffff160392506101000a81548167ffffffffffffffff021916908367ffffffffffffffff1602179055506001600560008673ffffffffffffffffffffffffffffffffffffffff1673ffffffffffffffffffffffffffffffffffffffff16815260200190815260200160002060000160008282829054906101000a900467ffffffffffffffff160192506101000a81548167ffffffffffffffff021916908367ffffffffffffffff1602179055506000600460008581526020019081526020016000209050848160000160006101000a81548173ffffffffffffffffffffffffffffffffffffffff021916908373ffffffffffffffffffffffffffffffffffffffff160217905550428160000160146101000a81548167ffffffffffffffff021916908367ffffffffffffffff16021790555060006001850190506000600460008381526020019081526020016000209050600073ffffffffffffffffffffffffffffffffffffffff168160000160009054906101000a900473ffffffffffffffffffffffffffffffffffffffff1673ffffffffffffffffffffffffffffffffffffffff161415611e4c576000548214611e4b57878160000160006101000a81548173ffffffffffffffffffffffffffffffffffffffff021916908373ffffffffffffffffffffffffffffffffffffffff16021790555084602001518160000160146101000a81548167ffffffffffffffff021916908367ffffffffffffffff1602179055505b5b505050828473ffffffffffffffffffffffffffffffffffffffff168673ffffffffffffffffffffffffffffffffffffffff167fddf252ad1be2c89b69c2b068fc378daa952ba7f163c4a11628f55a4df523b3ef60405160405180910390a4611eb7858585600161262e565b5050505050565b611ec6612b26565b600082905080611ed4611a03565b11158015611ee3575060005481105b15612116576000600460008381526020019081526020016000206040518060600160405290816000820160009054906101000a900473ffffffffffffffffffffffffffffffffffffffff1673ffffffffffffffffffffffffffffffffffffffff1673ffffffffffffffffffffffffffffffffffffffff1681526020016000820160149054906101000a900467ffffffffffffffff1667ffffffffffffffff1667ffffffffffffffff16815260200160008201601c9054906101000a900460ff1615151515815250509050806040015161211457600073ffffffffffffffffffffffffffffffffffffffff16816000015173ffffffffffffffffffffffffffffffffffffffff1614611ff8578092505050612148565b5b60011561211357818060019003925050600460008381526020019081526020016000206040518060600160405290816000820160009054906101000a900473ffffffffffffffffffffffffffffffffffffffff1673ffffffffffffffffffffffffffffffffffffffff1673ffffffffffffffffffffffffffffffffffffffff1681526020016000820160149054906101000a900467ffffffffffffffff1667ffffffffffffffff1667ffffffffffffffff16815260200160008201601c9054906101000a900460ff1615151515815250509050600073ffffffffffffffffffffffffffffffffffffffff16816000015173ffffffffffffffffffffffffffffffffffffffff161461210e578092505050612148565b611ff9565b5b505b6040517fdf2d9b4200000000000000000000000000000000000000000000000000000000815260040160405180910390fd5b919050565b6000600860009054906101000a900473ffffffffffffffffffffffffffffffffffffffff16905081600860006101000a81548173ffffffffffffffffffffffffffffffffffffffff021916908373ffffffffffffffffffffffffffffffffffffffff1602179055508173ffffffffffffffffffffffffffffffffffffffff168173ffffffffffffffffffffffffffffffffffffffff167f8be0079c531659141344cd1fd0a4f28419497f9722a3daafe3b4186f6b6457e060405160405180910390a35050565b6000808273ffffffffffffffffffffffffffffffffffffffff163b119050919050565b60008373ffffffffffffffffffffffffffffffffffffffff1663150b7a0261225c611949565b8786866040518563ffffffff1660e01b815260040161227e949392919061337c565b602060405180830381600087803b15801561229857600080fd5b505af19250505080156122c957506040513d601f19601f820116820180604052508101906122c69190612f42565b60015b612343573d80600081146122f9576040519150601f19603f3d011682016040523d82523d6000602084013e6122fe565b606091505b5060008151141561233b576040517fd1a57ed600000000000000000000000000000000000000000000000000000000815260040160405180910390fd5b805181602001fd5b63150b7a0260e01b7bffffffffffffffffffffffffffffffffffffffffffffffffffffffff1916817bffffffffffffffffffffffffffffffffffffffffffffffffffffffff191614915050949350505050565b6000600560008373ffffffffffffffffffffffffffffffffffffffff1673ffffffffffffffffffffffffffffffffffffffff16815260200190815260200160002060000160089054906101000a900467ffffffffffffffff1667ffffffffffffffff169050919050565b60008261240d8584612634565b1490509392505050565b6124318282604051806020016040528060008152506126a9565b5050565b6060600a8054612444906137eb565b80601f0160208091040260200160405190810160405280929190818152602001828054612470906137eb565b80156124bd5780601f10612492576101008083540402835291602001916124bd565b820191906000526020600020905b8154815290600101906020018083116124a057829003601f168201915b5050505050905090565b6060600082141561250f576040518060400160405280600181526020017f30000000000000000000000000000000000000000000000000000000000000008152509050612623565b600082905060005b6000821461254157808061252a9061384e565b915050600a8261253a91906136c6565b9150612517565b60008167ffffffffffffffff81111561255d5761255c6139a8565b5b6040519080825280601f01601f19166020018201604052801561258f5781602001600182028036833780820191505090505b5090505b6000851461261c576001826125a891906136f7565b9150600a856125b791906138bb565b60306125c39190613670565b60f81b8183815181106125d9576125d8613979565b5b60200101907effffffffffffffffffffffffffffffffffffffffffffffffffffffffffffff1916908160001a905350600a8561261591906136c6565b9450612593565b8093505050505b919050565b50505050565b50505050565b60008082905060005b845181101561269e57600085828151811061265b5761265a613979565b5b6020026020010151905080831161267d5761267683826126bb565b925061268a565b61268781846126bb565b92505b5080806126969061384e565b91505061263d565b508091505092915050565b6126b683838360016126d2565b505050565b600082600052816020526040600020905092915050565b600080549050600073ffffffffffffffffffffffffffffffffffffffff168573ffffffffffffffffffffffffffffffffffffffff16141561273f576040517f2e07630000000000000000000000000000000000000000000000000000000000815260040160405180910390fd5b600084141561277a576040517fb562e8dd00000000000000000000000000000000000000000000000000000000815260040160405180910390fd5b6127876000868387612628565b83600560008773ffffffffffffffffffffffffffffffffffffffff1673ffffffffffffffffffffffffffffffffffffffff16815260200190815260200160002060000160008282829054906101000a900467ffffffffffffffff160192506101000a81548167ffffffffffffffff021916908367ffffffffffffffff16021790555083600560008773ffffffffffffffffffffffffffffffffffffffff1673ffffffffffffffffffffffffffffffffffffffff16815260200190815260200160002060000160088282829054906101000a900467ffffffffffffffff160192506101000a81548167ffffffffffffffff021916908367ffffffffffffffff160217905550846004600083815260200190815260200160002060000160006101000a81548173ffffffffffffffffffffffffffffffffffffffff021916908373ffffffffffffffffffffffffffffffffffffffff160217905550426004600083815260200190815260200160002060000160146101000a81548167ffffffffffffffff021916908367ffffffffffffffff16021790555060008190506000858201905083801561295157506129508773ffffffffffffffffffffffffffffffffffffffff16612213565b5b15612a17575b818773ffffffffffffffffffffffffffffffffffffffff16600073ffffffffffffffffffffffffffffffffffffffff167fddf252ad1be2c89b69c2b068fc378daa952ba7f163c4a11628f55a4df523b3ef60405160405180910390a46129c66000888480600101955088612236565b6129fc576040517fd1a57ed600000000000000000000000000000000000000000000000000000000815260040160405180910390fd5b80821415612957578260005414612a1257600080fd5b612a83565b5b818060010192508773ffffffffffffffffffffffffffffffffffffffff16600073ffffffffffffffffffffffffffffffffffffffff167fddf252ad1be2c89b69c2b068fc378daa952ba7f163c4a11628f55a4df523b3ef60405160405180910390a480821415612a18575b816000819055505050612a99600086838761262e565b5050505050565b828054612aac906137eb565b90600052602060002090601f016020900481019282612ace5760008555612b15565b82601f10612ae757805160ff1916838001178555612b15565b82800160010185558215612b15579182015b82811115612b14578251825591602001919060010190612af9565b5b509050612b229190612b69565b5090565b6040518060600160405280600073ffffffffffffffffffffffffffffffffffffffff168152602001600067ffffffffffffffff1681526020016000151581525090565b5b80821115612b82576000816000905550600101612b6a565b5090565b6000612b99612b94846135c0565b61359b565b905082815260208101848484011115612bb557612bb46139e6565b5b612bc08482856137a9565b509392505050565b6000612bdb612bd6846135f1565b61359b565b905082815260208101848484011115612bf757612bf66139e6565b5b612c028482856137a9565b509392505050565b600081359050612c1981613c74565b92915050565b60008083601f840112612c3557612c346139dc565b5b8235905067ffffffffffffffff811115612c5257612c516139d7565b5b602083019150836020820283011115612c6e57612c6d6139e1565b5b9250929050565b600081359050612c8481613c8b565b92915050565b600081359050612c9981613ca2565b92915050565b600081519050612cae81613ca2565b92915050565b600082601f830112612cc957612cc86139dc565b5b8135612cd9848260208601612b86565b91505092915050565b600082601f830112612cf757612cf66139dc565b5b8135612d07848260208601612bc8565b91505092915050565b600081359050612d1f81613cb9565b92915050565b600060208284031215612d3b57612d3a6139f0565b5b6000612d4984828501612c0a565b91505092915050565b60008060408385031215612d6957612d686139f0565b5b6000612d7785828601612c0a565b9250506020612d8885828601612c0a565b9150509250929050565b600080600060608486031215612dab57612daa6139f0565b5b6000612db986828701612c0a565b9350506020612dca86828701612c0a565b9250506040612ddb86828701612d10565b9150509250925092565b60008060008060808587031215612dff57612dfe6139f0565b5b6000612e0d87828801612c0a565b9450506020612e1e87828801612c0a565b9350506040612e2f87828801612d10565b925050606085013567ffffffffffffffff811115612e5057612e4f6139eb565b5b612e5c87828801612cb4565b91505092959194509250565b60008060408385031215612e7f57612e7e6139f0565b5b6000612e8d85828601612c0a565b9250506020612e9e85828601612c75565b9150509250929050565b60008060408385031215612ebf57612ebe6139f0565b5b6000612ecd85828601612c0a565b9250506020612ede85828601612d10565b9150509250929050565b600060208284031215612efe57612efd6139f0565b5b6000612f0c84828501612c75565b91505092915050565b600060208284031215612f2b57612f2a6139f0565b5b6000612f3984828501612c8a565b91505092915050565b600060208284031215612f5857612f576139f0565b5b6000612f6684828501612c9f565b91505092915050565b600060208284031215612f8557612f846139f0565b5b600082013567ffffffffffffffff811115612fa357612fa26139eb565b5b612faf84828501612ce2565b91505092915050565b600060208284031215612fce57612fcd6139f0565b5b6000612fdc84828501612d10565b91505092915050565b600080600060408486031215612ffe57612ffd6139f0565b5b600061300c86828701612d10565b935050602084013567ffffffffffffffff81111561302d5761302c6139eb565b5b61303986828701612c1f565b92509250509250925092565b61304e8161372b565b82525050565b6130656130608261372b565b613897565b82525050565b6130748161373d565b82525050565b61308381613749565b82525050565b600061309482613622565b61309e8185613638565b93506130ae8185602086016137b8565b6130b7816139f5565b840191505092915050565b60006130cd8261362d565b6130d78185613654565b93506130e78185602086016137b8565b6130f0816139f5565b840191505092915050565b60006131068261362d565b6131108185613665565b93506131208185602086016137b8565b80840191505092915050565b6000613139602983613654565b915061314482613a13565b604082019050919050565b600061315c601583613654565b915061316782613a62565b602082019050919050565b600061317f602683613654565b915061318a82613a8b565b604082019050919050565b60006131a2601f83613654565b91506131ad82613ada565b602082019050919050565b60006131c5600583613665565b91506131d082613b03565b600582019050919050565b60006131e8602083613654565b91506131f382613b2c565b602082019050919050565b600061320b601e83613654565b915061321682613b55565b602082019050919050565b600061322e602483613654565b915061323982613b7e565b604082019050919050565b6000613251601e83613654565b915061325c82613bcd565b602082019050919050565b6000613274601483613654565b915061327f82613bf6565b602082019050919050565b6000613297601c83613654565b91506132a282613c1f565b602082019050919050565b60006132ba600083613649565b91506132c582613c48565b600082019050919050565b60006132dd600e83613654565b91506132e882613c4b565b602082019050919050565b6132fc8161379f565b82525050565b600061330e8284613054565b60148201915081905092915050565b600061332982856130fb565b915061333582846130fb565b9150613340826131b8565b91508190509392505050565b6000613357826132ad565b9150819050919050565b60006020820190506133766000830184613045565b92915050565b60006080820190506133916000830187613045565b61339e6020830186613045565b6133ab60408301856132f3565b81810360608301526133bd8184613089565b905095945050505050565b60006020820190506133dd600083018461306b565b92915050565b60006020820190506133f8600083018461307a565b92915050565b6000602082019050818103600083015261341881846130c2565b905092915050565b600060208201905081810360008301526134398161312c565b9050919050565b600060208201905081810360008301526134598161314f565b9050919050565b6000602082019050818103600083015261347981613172565b9050919050565b6000602082019050818103600083015261349981613195565b9050919050565b600060208201905081810360008301526134b9816131db565b9050919050565b600060208201905081810360008301526134d9816131fe565b9050919050565b600060208201905081810360008301526134f981613221565b9050919050565b6000602082019050818103600083015261351981613244565b9050919050565b6000602082019050818103600083015261353981613267565b9050919050565b600060208201905081810360008301526135598161328a565b9050919050565b60006020820190508181036000830152613579816132d0565b9050919050565b600060208201905061359560008301846132f3565b92915050565b60006135a56135b6565b90506135b1828261381d565b919050565b6000604051905090565b600067ffffffffffffffff8211156135db576135da6139a8565b5b6135e4826139f5565b9050602081019050919050565b600067ffffffffffffffff82111561360c5761360b6139a8565b5b613615826139f5565b9050602081019050919050565b600081519050919050565b600081519050919050565b600082825260208201905092915050565b600081905092915050565b600082825260208201905092915050565b600081905092915050565b600061367b8261379f565b91506136868361379f565b9250827fffffffffffffffffffffffffffffffffffffffffffffffffffffffffffffffff038211156136bb576136ba6138ec565b5b828201905092915050565b60006136d18261379f565b91506136dc8361379f565b9250826136ec576136eb61391b565b5b828204905092915050565b60006137028261379f565b915061370d8361379f565b9250828210156137205761371f6138ec565b5b828203905092915050565b60006137368261377f565b9050919050565b60008115159050919050565b6000819050919050565b60007fffffffff0000000000000000000000000000000000000000000000000000000082169050919050565b600073ffffffffffffffffffffffffffffffffffffffff82169050919050565b6000819050919050565b82818337600083830152505050565b60005b838110156137d65780820151818401526020810190506137bb565b838111156137e5576000848401525b50505050565b6000600282049050600182168061380357607f821691505b602082108114156138175761381661394a565b5b50919050565b613826826139f5565b810181811067ffffffffffffffff82111715613845576138446139a8565b5b80604052505050565b60006138598261379f565b91507fffffffffffffffffffffffffffffffffffffffffffffffffffffffffffffffff82141561388c5761388b6138ec565b5b600182019050919050565b60006138a2826138a9565b9050919050565b60006138b482613a06565b9050919050565b60006138c68261379f565b91506138d18361379f565b9250826138e1576138e061391b565b5b828206905092915050565b7f4e487b7100000000000000000000000000000000000000000000000000000000600052601160045260246000fd5b7f4e487b7100000000000000000000000000000000000000000000000000000000600052601260045260246000fd5b7f4e487b7100000000000000000000000000000000000000000000000000000000600052602260045260246000fd5b7f4e487b7100000000000000000000000000000000000000000000000000000000600052603260045260246000fd5b7f4e487b7100000000000000000000000000000000000000000000000000000000600052604160045260246000fd5b600080fd5b600080fd5b600080fd5b600080fd5b600080fd5b600080fd5b6000601f19601f8301169050919050565b60008160601b9050919050565b7f4d6178696d756d206e756d626572206f6620746f6b656e73206d696e7465642060008201527f65786365656465642e0000000000000000000000000000000000000000000000602082015250565b7f5468652073616c65206861732073746f707065642e0000000000000000000000600082015250565b7f4f776e61626c653a206e6577206f776e657220697320746865207a65726f206160008201527f6464726573730000000000000000000000000000000000000000000000000000602082015250565b7f496e76616c696420616d6f756e74206f6620746f6b656e732073656e742e2000600082015250565b7f2e6a736f6e000000000000000000000000000000000000000000000000000000600082015250565b7f4f776e61626c653a2063616c6c6572206973206e6f7420746865206f776e6572600082015250565b7f43616c6c6572206d757374206e6f74206265206120636f6e74726163742e0000600082015250565b7f546f74616c20737570706c792065786365656473206d6178696d756d2073757060008201527f706c792e00000000000000000000000000000000000000000000000000000000602082015250565b7f496e76616c696420616d6f756e74206f6620746f6b656e732073656e742e0000600082015250565b7f5472616e7366657220686173206661696c65642e000000000000000000000000600082015250565b7f4d696e696d756d20616d6f756e7420746f206d696e7420697320312e00000000600082015250565b50565b7f496e76616c69642070726f6f662e000000000000000000000000000000000000600082015250565b613c7d8161372b565b8114613c8857600080fd5b50565b613c948161373d565b8114613c9f57600080fd5b50565b613cab81613753565b8114613cb657600080fd5b50565b613cc28161379f565b8114613ccd57600080fd5b5056fea2646970667358221220013a1416696d74e23800ec5aaebdbaf875f012db960fda3028f6a8a6126ca76964736f6c63430008070033",
  "linkReferences": {},
  "deployedLinkReferences": {}
}